:03000000020030CB
:10003000758920758BFD758DFD7598D2D28ED29BFA
:100040007590FF75A0FFC2D5C29D118F209A09B48B
:10005000322FD29D74321187309D26C29D118F3070
:100060009AEDD29DF5A060E0D2B41197D2B700E529
:100070008011A4E5301187E5311187C2B4C2B78081
:10008000D7E590F5A080C33099FDC299F59922304B
:1000900098FDE599C298227F3CDFFE227F027EFA1E
:0E00A000DEFEDFFA75F00A84F53085F03122BD
:00000001FF
