:03000000020030CB
:10003000758921758BFD758DFD7598D2D28E759061
:10004000FF75A0FF752000906000310C3119758A92
:10005000B0758C3CC28CC28D20B236C29BC29D3121
:10006000193152743111CA11D2208DE2C29DB431BE
:10007000DDD29BE59011CA60D511D2208DD0C29BF4
:10008000C29DB4FE0405203145E52011E911F88038
:10009000E0C29BC29D31193166743211CA11D2205F
:1000A0008DACC29DB432A7D29BE59011CA609F115E
:1000B000D2208D9AF911D2FA7420312D7B3F11F89C
:1000C0007443312DC29BC29D80DD3099FDC299F5EC
:1000D0009922D28C208D113098FA758AB0758C3C9B
:1000E000C28CC28DE599C2982275F06484F9E5F05E
:1000F00075F00A84FAABF02274C0311E74302931D5
:100100002D74302A312D74302B312D227438311E4C
:10011000740F311E7406311E227401311E22C2B4C6
:10012000906000D2B3C2B5F0C2B3313C22C2B490E9
:100130006000D2B3D2B5F0C2B3313C227E0A7FFA5E
:10014000DFFEDEFA227F037EC87DFADDFEDEFADF07
:0F015000F622C0007400900184F8936006312DF0
:10015F00E80480F3D00022C0007400900196F89359
:10016F006006312DE80480F3D0002275F00A84F583
:10017F006085F06122534F204C414E204E48414E36
:10018F00204E55543A200054454D50455241545538
:04019F0052453A008B
:00000001FF
