:03000000020030CB
:10003000758921758BFD758DFD7598D2D28E759061
:10004000FF75A0FF75200090600011FE310B758ACE
:10005000B0758C3CC28CC28D20B236C29BC29D3121
:100060000B3144743111BC11C4208DE2C29DB431F6
:10007000DDD29BE59011BC60D511C4208DD0C29B10
:10008000C29DB4FE0405203137E52011DB11EA8062
:10009000E0C29BC29D310B3158743211BC11C42097
:1000A0008DACC29DB432A7D29BE59011BC609F116C
:1000B000C4208D9AC29BC29DF5A080EB3099FDC2F1
:1000C00099F59922D28C208D113098FA758AB075E5
:1000D0008C3CC28CC28DE599C2982275F06484F97B
:1000E000E5F075F00A84FAABF02274C03110743078
:1000F00029311F74302A311F74302B311F2274387C
:100100003110740F31107406311022740131102235
:10011000C2B4906000D2B3C2B5F0C2B3312E22C2D5
:10012000B4906000D2B3D2B5F0C2B3312E227E0AB1
:100130007FFADFFEDEFA227F037EC87DFADDFEDE77
:10014000FADFF622C000740090016CF8936006316B
:0F0150001FE80480F3D00022C000740090017EED
:10015F00F8936006311FE80480F3D00022534F203C
:10016F004C414E204E48414E204E55543A20004EA1
:10017F004849455420444F204849454E2054414951
:03018F003A200013
:00000001FF
